{
  "_format": "hh-sol-artifact-1",
  "contractName": "PKI",
  "sourceName": "contracts/pki.sol",
  "abi": [
    {
      "anonymous": false,
      "inputs": [
        {
          "indexed": false,
          "internalType": "uint256",
          "name": "serialNumber",
          "type": "uint256"
        },
        {
          "indexed": false,
          "internalType": "string",
          "name": "commonName",
          "type": "string"
        }
      ],
      "name": "CertificateRequested",
      "type": "event"
    },
    {
      "inputs": [],
      "name": "caCertificateFile",
      "outputs": [
        {
          "internalType": "string",
          "name": "",
          "type": "string"
        }
      ],
      "stateMutability": "view",
      "type": "function"
    },
    {
      "inputs": [],
      "name": "getCaCertificate",
      "outputs": [
        {
          "internalType": "string[33]",
          "name": "",
          "type": "string[33]"
        }
      ],
      "stateMutability": "view",
      "type": "function"
    },
    {
      "inputs": [
        {
          "internalType": "uint256",
          "name": "serialNumber",
          "type": "uint256"
        }
      ],
      "name": "getCertificate",
      "outputs": [
        {
          "internalType": "string[33]",
          "name": "",
          "type": "string[33]"
        }
      ],
      "stateMutability": "view",
      "type": "function"
    },
    {
      "inputs": [
        {
          "internalType": "string",
          "name": "name",
          "type": "string"
        }
      ],
      "name": "getCertificate",
      "outputs": [
        {
          "internalType": "string[33]",
          "name": "",
          "type": "string[33]"
        }
      ],
      "stateMutability": "view",
      "type": "function"
    },
    {
      "inputs": [
        {
          "internalType": "string",
          "name": "name",
          "type": "string"
        }
      ],
      "name": "getCertificateFile",
      "outputs": [
        {
          "internalType": "string",
          "name": "",
          "type": "string"
        }
      ],
      "stateMutability": "view",
      "type": "function"
    },
    {
      "inputs": [
        {
          "internalType": "uint256",
          "name": "serialNumber",
          "type": "uint256"
        }
      ],
      "name": "getCertificateFile",
      "outputs": [
        {
          "internalType": "string",
          "name": "",
          "type": "string"
        }
      ],
      "stateMutability": "view",
      "type": "function"
    },
    {
      "inputs": [
        {
          "internalType": "uint256",
          "name": "serialNumber",
          "type": "uint256"
        }
      ],
      "name": "getCertificateStatus",
      "outputs": [
        {
          "internalType": "uint256",
          "name": "",
          "type": "uint256"
        }
      ],
      "stateMutability": "view",
      "type": "function"
    },
    {
      "inputs": [],
      "name": "getPendingCertificate",
      "outputs": [
        {
          "internalType": "string[33]",
          "name": "",
          "type": "string[33]"
        }
      ],
      "stateMutability": "view",
      "type": "function"
    },
    {
      "inputs": [],
      "name": "isPendingCertificate",
      "outputs": [
        {
          "internalType": "bool",
          "name": "",
          "type": "bool"
        }
      ],
      "stateMutability": "view",
      "type": "function"
    },
    {
      "inputs": [
        {
          "internalType": "string",
          "name": "signature",
          "type": "string"
        },
        {
          "internalType": "string",
          "name": "contractAddress",
          "type": "string"
        },
        {
          "internalType": "string",
          "name": "subjectKeyIdentifier",
          "type": "string"
        },
        {
          "internalType": "string",
          "name": "certificateFile",
          "type": "string"
        }
      ],
      "name": "issuePendingCertificate",
      "outputs": [],
      "stateMutability": "nonpayable",
      "type": "function"
    },
    {
      "inputs": [],
      "name": "oldestPendingCertificateSerialNumber",
      "outputs": [
        {
          "internalType": "uint256",
          "name": "",
          "type": "uint256"
        }
      ],
      "stateMutability": "view",
      "type": "function"
    },
    {
      "inputs": [],
      "name": "owner",
      "outputs": [
        {
          "internalType": "address",
          "name": "",
          "type": "address"
        }
      ],
      "stateMutability": "view",
      "type": "function"
    },
    {
      "inputs": [
        {
          "internalType": "string[33]",
          "name": "cert",
          "type": "string[33]"
        },
        {
          "internalType": "string",
          "name": "certFile",
          "type": "string"
        }
      ],
      "name": "populateCaCertificate",
      "outputs": [],
      "stateMutability": "nonpayable",
      "type": "function"
    },
    {
      "inputs": [],
      "name": "rejectPendingCertificate",
      "outputs": [],
      "stateMutability": "nonpayable",
      "type": "function"
    },
    {
      "inputs": [
        {
          "internalType": "string[33]",
          "name": "cert",
          "type": "string[33]"
        }
      ],
      "name": "requestCertificate",
      "outputs": [],
      "stateMutability": "nonpayable",
      "type": "function"
    },
    {
      "inputs": [
        {
          "internalType": "uint256",
          "name": "serialNumber",
          "type": "uint256"
        }
      ],
      "name": "revokeCertificate",
      "outputs": [],
      "stateMutability": "nonpayable",
      "type": "function"
    },
    {
      "inputs": [
        {
          "internalType": "address",
          "name": "newOwner",
          "type": "address"
        }
      ],
      "name": "transferOwnership",
      "outputs": [],
      "stateMutability": "nonpayable",
      "type": "function"
    }
  ],
  "bytecode": "0x6080806040523461002c57600080546001600160a01b031916331790556001805561267e90816100328239f35b600080fdfe6080604052600436101561001257600080fd5b60003560e01c8063044424571461012757806306f5497e146101225780630aec43b21461011d57806312c11837146101185780633cb36a0a1461011357806351640fee1461010e5780637ce4dd301461010957806385ba6918146101045780638740b687146100ff5780638da5cb5b146100fa578063bbe7f23b146100f5578063cff902d2146100f0578063d3bc590b146100eb578063eb78db5a146100e6578063ed0f2e75146100e1578063f2fde38b146100dc5763f9eaec3d146100d757600080fd5b610fdc565b610f95565b610f59565b610eb8565b610e80565b610deb565b610d35565b610d0c565b610cad565b610c21565b610b19565b6104c3565b610455565b610339565b610246565b6101db565b346101c4576000806003193601126101c15761014d60018060a01b038254163314611218565b600154808252602760205260ff60408320541660058110156101ad576101979161017a61018a9215611a15565b6000526027602052604060002090565b805460ff19166003179055565b6101aa6101a5600154611a1c565b600155565b80f35b634e487b7160e01b83526021600452602483fd5b80fd5b600080fd5b60209060031901126101c45760043590565b346101c4576101e9366101c9565b60009061020060018060a01b038354163314611218565b808252602760205260ff60408320541660058110156101ad57600103610242576102356101aa9161017a602454821115611a15565b805460ff19166002179055565b5080fd5b346101c45760003660031901126101c4576020600154604051908152f35b634e487b7160e01b600052604160045260246000fd5b61042081019081106001600160401b0382111761029657604052565b610264565b604081019081106001600160401b0382111761029657604052565b90601f801991011681019081106001600160401b0382111761029657604052565b6001600160401b03811161029657601f01601f191660200190565b81601f820112156101c457803590610309826102d7565b9261031760405194856102b6565b828452602083830101116101c457816000926020809301838601378301015290565b346101c45760803660031901126101c4576001600160401b036004358181116101c45761036a9036906004016102f2565b6024358281116101c4576103829036906004016102f2565b6044358381116101c45761039a9036906004016102f2565b906064359384116101c4576103b66103bc9436906004016102f2565b92611a2b565b005b60005b8381106103d15750506000910152565b81810151838201526020016103c1565b906020916103fa815180928185528580860191016103be565b601f01601f1916010190565b6020808252610440820192919060008282015b6021821061042957505050505090565b90919293948380610446600193601f1989820301865289516103e1565b97019201920190939291610419565b346101c45760003660031901126101c45761047a6040516104758161027a565b611524565b6040516104868161027a565b60026000825b602182106104a657604051806104a28682610406565b0390f35b6001602081926104b586610a62565b81520193019101909161048c565b346101c4576104d1366101c9565b6104e06040516104758161027a565b60245481116101c45760001981019081116105165761050a6105046104a29261195e565b50611542565b60405191829182610406565b611264565b90600182811c9216801561054b575b602083101461053557565b634e487b7160e01b600052602260045260246000fd5b91607f169161052a565b60405190600082600254916105698361051b565b808352926001908181169081156105f15750600114610592575b50610590925003836102b6565b565b6002600090815291507f405787fa12a823e0f2b7631cc41b3ba8828b3321ca811111fa75cd3aa3bb5ace5b8483106105d65750610590935050810160200138610583565b81935090816020925483858a010152019101909185926105bd565b90506020925061059094915060ff191682840152151560051b82010138610583565b60405190600082600354916106278361051b565b808352926001908181169081156105f1575060011461064d5750610590925003836102b6565b6003600090815291507fc2575a0e9e593c00f959f8c92f12db2869c3395a3b0502d05e2516446f71f85b5b8483106106915750610590935050810160200138610583565b81935090816020925483858a01015201910190918592610678565b60405190600082600454916106c08361051b565b808352926001908181169081156105f157506001146106e65750610590925003836102b6565b6004600090815291507f8a35acfbc15ff81a39ae7d344fd709f28e8600b4aa8c65c6b64bfe7fe36bd19b5b84831061072a5750610590935050810160200138610583565b81935090816020925483858a01015201910190918592610711565b60405190600082600554916107598361051b565b808352926001908181169081156105f1575060011461077f5750610590925003836102b6565b6005600090815291507f036b6384b5eca791c62761152d0c79bb0604c104a5fb6f4eb0703f3154bb3db05b8483106107c35750610590935050810160200138610583565b81935090816020925483858a010152019101909185926107aa565b60405190600082600654916107f28361051b565b808352926001908181169081156105f157506001146108185750610590925003836102b6565b6006600090815291507ff652222313e28459528d920b65115c16c04f3efc82aaedc97be59f3f377c0d3f5b84831061085c5750610590935050810160200138610583565b81935090816020925483858a01015201910190918592610843565b60405190600082601f549161088b8361051b565b808352926001908181169081156105f157506001146108b15750610590925003836102b6565b601f600090815291507fa03837a25210ee280c2113ff4b77ca23440b19d4866cca721c801278fd08d8075b8483106108f55750610590935050810160200138610583565b81935090816020925483858a010152019101909185926108dc565b60405190600082601e54916109248361051b565b808352926001908181169081156105f1575060011461094a5750610590925003836102b6565b601e600090815291507f50bb669a95c7b50b7e8a6f09454034b2b14cf2b85c730dca9a539ca82cb6e3505b84831061098e5750610590935050810160200138610583565b81935090816020925483858a01015201910190918592610975565b6040519060008260209182546109be8161051b565b80845290600190818116908115610a4257506001146109e6575b5050610590925003836102b6565b60008581527fc97bfaf2f8ee708c303a06d134f5ecd8389ae0432af62dc132a24118292866bb95935091905b818310610a2a575050610590935082010138806109d8565b85548884018501529485019487945091830191610a12565b91505061059094925060ff191682840152151560051b82010138806109d8565b9060405191826000825492610a768461051b565b908184526001948581169081600014610ae25750600114610a9f575050610590925003836102b6565b9093915060005260209081600020936000915b818310610aca575050610590935082010138806109d8565b85548884018501529485019487945091830191610ab2565b91505061059094506020925060ff191682840152151560051b82010138806109d8565b906020610b169281815201906103e1565b90565b346101c4576000806003193601126101c1576040519080602354610b3c8161051b565b80855291600191808316908115610bcd5750600114610b72575b6104a285610b66818703826102b6565b60405191829182610b05565b9250602383527fd57b2b5166478fd4318d2acc6cc2c704584312bdd8781b32d5d06abda57f42305b828410610bb5575050508101602001610b66826104a2610b56565b80546020858701810191909152909301928101610b9a565b8695506104a296935060209250610b6694915060ff191682840152151560051b8201019293610b56565b60206003198201126101c457600435906001600160401b0382116101c457610b16916004016102f2565b346101c457610c4b610c3236610bf7565b610c46610c3e82611dff565b541515611e25565b611dff565b546000198101818111610516576025541115610ca857610c947f401968ff42a154441da5f6c4c935ac46b8671f0e062baaa62a7545ba53bb6e4b6104a292602560005201610a62565b6040519182916020835260208301906103e1565b61157e565b346101c457610cbb366101c9565b60245481116101c4576000198101818111610516576025541115610ca857610c947f401968ff42a154441da5f6c4c935ac46b8671f0e062baaa62a7545ba53bb6e4b6104a292602560005201610a62565b346101c45760003660031901126101c4576000546040516001600160a01b039091168152602090f35b346101c457610d43366101c9565b60245481116101c457600052602760205260ff604060002054166005811015610d7157602090604051908152f35b634e487b7160e01b600052602160045260246000fd5b9080601f830112156101c45760405191610da08361027a565b610420810190838383116101c45781905b838210610dc057505050505090565b81356001600160401b0381116101c457602091610de087849387016102f2565b815201910190610db1565b346101c45760403660031901126101c4576001600160401b036004358181116101c457610e1c903690600401610d87565b906024359081116101c457610e359036906004016102f2565b90610e4b60018060a01b03600054163314611218565b6002906000905b60218210610e63576103bc8461136d565b6001602082610e7483945187611456565b01930191019091610e52565b346101c45760003660031901126101c457610ea660018060a01b03600054163314611218565b60206001546024541015604051908152f35b346101c45760003660031901126101c457610ed86040516104758161027a565b610eed60018060a01b03600054163314611218565b6001546024548111610f145760001981019081116105165761050a6105046104a29261195e565b60405162461bcd60e51b815260206004820152601760248201527f4e6f2070656e64696e67206365727469666963617465730000000000000000006044820152606490fd5b346101c457610f79610f6a36610bf7565b610c326040516104758161027a565b5460001981019081116105165761050a6105046104a29261195e565b346101c45760203660031901126101c4576004356001600160a01b03818116918290036101c457610fcc6000549182163314611218565b6001600160a01b03191617600055005b346101c45760203660031901126101c4576004356001600160401b0381116101c45761100f6103bc913690600401610d87565b61101c8151511515611594565b61102c60208201515115156115e0565b61103c604082015151151561162c565b61104c606082015151151561166f565b61105c60808201515115156116af565b61108d61106d610140830151611ff8565b61108661107e610160850151611ff8565b9182116116f1565b421061173d565b61109e610200820151511515611789565b6110b66110af610220830151611ff8565b15156117d4565b6110c7610240820151511515611820565b6110dd6110d8610300830151612079565b611865565b6110eb610320820151611ff8565b506111076110fd61017a6024546118a3565b805460ff19169055565b6111aa6111a56024547f71788b2570b4c13b8e2e5ea20a66ba7ed6c59af677116a74c2546eead515f1fa61113a826118a3565b85519061114c604051928392836118da565b0390a1611157610555565b60a0850152611164610613565b60c08501526111716106ac565b60e085015261117e610745565b61010085015261118c6107de565b61012085015261119a611914565b6102608501526118a3565b6122dc565b6102808201526111b8611931565b6102a08201526111c73361214a565b6103408201526111d5610877565b6103608201526111e3610910565b6103808201526111f16118f1565b6103a08201526111ff6109a9565b6103e082015261120d6118f1565b610400820152611999565b1561121f57565b60405162461bcd60e51b815260206004820152601f60248201527f4e6f74206f776e6572206f662074686520736d61727420636f6e7472616374006044820152606490fd5b634e487b7160e01b600052601160045260246000fd5b908160011b918083046002149015171561051657565b600381901b91906001600160fd1b0381160361051657565b601f81116112b4575050565b600090602382527fd57b2b5166478fd4318d2acc6cc2c704584312bdd8781b32d5d06abda57f4230906020601f850160051c8301941061130f575b601f0160051c01915b82811061130457505050565b8181556001016112f8565b90925082906112ef565b90601f811161132757505050565b600091825260208220906020601f850160051c83019410611363575b601f0160051c01915b82811061135857505050565b81815560010161134c565b9092508290611343565b9081516001600160401b038111610296576113928161138d60235461051b565b6112a8565b602080601f83116001146113ce57508192936000926113c3575b50508160011b916000199060031b1c191617602355565b0151905038806113ac565b90601f1983169461140160236000527fd57b2b5166478fd4318d2acc6cc2c704584312bdd8781b32d5d06abda57f423090565b926000905b87821061143e575050836001959610611425575b505050811b01602355565b015160001960f88460031b161c1916905538808061141a565b80600185968294968601518155019501930190611406565b91909182516001600160401b0381116102965761147d81611477845461051b565b84611319565b602080601f83116001146114b95750819293946000926114ae575b50508160011b916000199060031b1c1916179055565b015190503880611498565b90601f198316956114cf85600052602060002090565b926000905b88821061150c575050836001959697106114f3575b505050811b019055565b015160001960f88460031b161c191690553880806114e9565b806001859682949686015181550195019301906114d4565b60005b6104208110611534575050565b606082820152602001611527565b90604051916115508361027a565b6000835b6021821061156157505050565b60016020819261157086610a62565b815201930191019091611554565b634e487b7160e01b600052603260045260246000fd5b1561159b57565b60405162461bcd60e51b815260206004820152601760248201527f436f6d6d6f6e206e616d652069732072657175697265640000000000000000006044820152606490fd5b156115e757565b60405162461bcd60e51b815260206004820152601860248201527f4f7267616e697a6174696f6e20697320726571756972656400000000000000006044820152606490fd5b1561163357565b60405162461bcd60e51b8152602060048201526014602482015273131bd8d85b1a5d1e481a5cc81c995c5d5a5c995960621b6044820152606490fd5b1561167657565b60405162461bcd60e51b815260206004820152601160248201527014dd185d19481a5cc81c995c5d5a5c9959607a1b6044820152606490fd5b156116b657565b60405162461bcd60e51b815260206004820152601360248201527210dbdd5b9d1c9e481a5cc81c995c5d5a5c9959606a1b6044820152606490fd5b156116f857565b60405162461bcd60e51b815260206004820152601a60248201527f56616c696469747920706572696f6420697320696e76616c69640000000000006044820152606490fd5b1561174457565b60405162461bcd60e51b815260206004820152601e60248201527f436572746966696361746520697320616c7265616479206578706972656400006044820152606490fd5b1561179057565b606460405162461bcd60e51b815260206004820152602060248201527f5075626c6963206b657920616c676f726974686d2069732072657175697265646044820152fd5b156117db57565b60405162461bcd60e51b815260206004820152601a60248201527f5075626c6963206b65792073697a6520697320696e76616c69640000000000006044820152606490fd5b1561182757565b60405162461bcd60e51b8152602060048201526016602482015275141d589b1a58c81ad95e481a5cc81c995c5d5a5c995960521b6044820152606490fd5b1561186c57565b60405162461bcd60e51b815260206004820152600f60248201526e1a5cd0d8481a5cc81a5b9d985b1a59608a1b6044820152606490fd5b906001820180921161051657565b600201908160021161051657565b600301908160031161051657565b9190820180921161051657565b604090610b169392815281602082015201906103e1565b60405190602082018281106001600160401b038211176102965760405260008252565b604051906119218261029b565b60018252603360f81b6020830152565b6040519061193e8261029b565b601182527032b1b239b096bbb4ba3416a9a420991a9b60791b6020830152565b602454811015610ca8576021906024600052027f7cd332d19b93bcabe3cce7ca0c18a052f57e5fd03b4758a09f30f5ddc4b22ec40190600090565b90602454600160401b8110156102965760019283820180602455821015610ca857602460005260218092027f7cd332d19b93bcabe3cce7ca0c18a052f57e5fd03b4758a09f30f5ddc4b22ec4016000915b8383106119f957505050509050565b85602082611a0983945186611456565b019201920191906119ea565b156101c457565b60001981146105165760010190565b611aad90611a93611ab294959395611a4e60018060a01b03600054163314611218565b611a79600197611a73611a69611a648b54611bd7565b61195e565b50601d0190600090565b90611c01565b611a73611a89611a648954611bd7565b50601e0190600090565b611a73611aa3611a648754611bd7565b5060200190600090565b611c26565b611ad7611aca82546000526027602052604060002090565b805460ff19166001179055565b611b89611b7b825480611af5611aef611a6483611bd7565b50611cf8565b55611b46611b71611a64611b6b611b4d611b52611b4d611b2d611b27611b1d611a648b611bd7565b50600c0190600090565b50611d15565b611b46611b3c611a648b611bd7565b50600d0190600090565b5090611d5c565b611d96565b611b46611b61611a6489611bd7565b50600e0190600090565b93611bd7565b50600f0190600090565b611b83611dce565b90611ed2565b6000825b611ba1575b50506101a56105909154611a1c565b8151811015611bd25790611bcb83928354611bc5611bbf8386611deb565b51611dff565b55611a1c565b9091611b8d565b611b92565b60001981019190821161051657565b602003906020821161051657565b9190820391821161051657565b9190611c105761059091611456565b634e487b7160e01b600052600060045260246000fd5b60255490600160401b821015610296576001820180602555821015610ca8576105909160256000527f401968ff42a154441da5f6c4c935ac46b8671f0e062baaa62a7545ba53bb6e4c01611456565b600092918154611c848161051b565b92600191808316908115611cdd5750600114611ca1575b50505050565b90919293945060005260209081600020906000915b858310611ccc5750505050019038808080611c9b565b805485840152918301918101611cb6565b60ff1916845250505081151590910201915038808080611c9b565b6020611d0a9160405192838092611c75565b602681520301902090565b906105906001611d2f936040519485916020830190611c75565b600160fd1b815203601e198101855201836102b6565b90611d58602092828151948592016103be565b0190565b61059090611d88602094936040519583611d7f88955180928480890191016103be565b84010190611c75565b03601f1981018452836102b6565b90610590602160405184611db48296518092602080860191016103be565b8101600160fd1b60208201520360018101855201836102b6565b60405190611ddb8261029b565b60018252600160fd1b6020830152565b8051821015610ca85760209160051b010190565b6020611e189181604051938285809451938492016103be565b8101602681520301902090565b15611e2c57565b60405162461bcd60e51b815260206004820152601c60248201527f4e6f20636572746966696361746520666f722074686973206e616d65000000006044820152606490fd5b6001600160401b0381116102965760051b60200190565b90611e9282611e71565b611e9f60405191826102b6565b8281528092611eb0601f1991611e71565b019060005b828110611ec157505050565b806060602080938501015201611eb5565b90611edf611ee5916123af565b916123af565b6000928151916020810194611f0586519486516020880196875192612531565b8551810180911161051657905b865183518101809111610516578211611f6857611f2e90611a1c565b90825190875181039080821161051657611f4e611f5a92611f6294611bf4565b90885190885192612531565b8651906118cd565b90611f12565b9050611f81929550611f7c919493506118a3565b611e88565b9160005b8351811015611fc457611fbf90611fa4611f9f8585612499565b6123d5565b611fae8287611deb565b52611fb98186611deb565b50611a1c565b611f85565b50505090565b805115610ca85760200190565b805160011015610ca85760210190565b908151811015610ca8570160200190565b90600091825b8151811015612075576120118183611fe7565b5160f81c60308110158061206a575b612034575b5061202f90611a1c565b611ffe565b600a9491949182810292818404149015171561051657602f1990808281011161051657820101809111610516579261202f612025565b506039811115612020565b5050565b604051602090818101906120a4838286516120978187858b016103be565b81010380845201826102b6565b51902060405190828201826120c482600490637472756560e01b81520190565b03926120d8601f19948581018352826102b6565b519020149283156120e95750505090565b9091925060405161210d816121018682018095611d45565b038481018352826102b6565b5190209161213e6040519182019282612132856005906466616c736560d81b81520190565b039081018352826102b6565b51902014388080611fc4565b90604051916bffffffffffffffffffffffff199060601b166020830152601482526121748261029b565b61217c61226d565b61219661219161218c855161127a565b6118b1565b612299565b9060306121a283611fca565b5360786121ae83611fd7565b53600093845b815181101561226557806122096121dd6122036121fd6121f76121eb6121dd612260988a611fe7565b516001600160f81b03191690565b60041c600f60f81b1690565b60f81c90565b60ff1690565b86611fe7565b61222261221861218c8461127a565b91891a9187611fe7565b536122466121dd6122036121fd600f60f81b61223f84878a611fe7565b1660f81c90565b61225a6122186122558461127a565b6118bf565b53611a1c565b6121b4565b509193505050565b6040519061227a8261029b565b601082526f181899199a1a9b1b9c1cb0b131b232b360811b6020830152565b906122a3826102d7565b6122b060405191826102b6565b82815280926122c1601f19916102d7565b0190602036910137565b60ff166030019060ff821161051657565b801561237857806000908282935b6123645750806122f984612299565b93905b6123065750505090565b61230f90611bd7565b9081600a91828104928084029084820414841517156105165781039081116105165761235361234360ff61235c93166122cb565b60f81b6001600160f81b03191690565b851a9186611fe7565b5390816122fc565b92612370600a91611a1c565b9304806122ea565b506040516123858161029b565b60018152600360fc1b602082015290565b604051906123a38261029b565b60006020838281520152565b6123b7612396565b506020815191604051926123ca8461029b565b835201602082015290565b8051906123fa6123e4836102d7565b926123f260405194856102b6565b8084526102d7565b601f19906020848101918301368337808401519351919391925b8184101561245d57506000199280612437575b5050518251821691191617905290565b908092935003908111610516576124506124559161248a565b611bd7565b903880612427565b92919384518152818101809111610516579381810180911161051657918381019081116105165792612414565b601f8111610516576101000a90565b91906124a3612396565b926124ac612396565b508051916124c860208301938451835190602085015192612531565b9083516020870152835182038281116105165786528351835181018091116105165782036124f95750506000915052565b855192815184018094116105165761251561251e948251611bf4565b905251906118cd565b9052565b60ff8111610516576001901b90565b9192819360008482111561254d575b505050610b1692506118cd565b91939291602082116125f05750600093816125c6575b5184169392919061257d9061257884846118cd565b611bf4565b84848751165b0361259057505050505090565b9091929394818110156125b7576125a690611a1c565b948486511690809594939291612583565b5050909150610b1692506118cd565b935061257d6125e76124506125e26125dd85611be6565b611290565b612522565b19949050612563565b9290809296942092945b6126048383611bf4565b861161263557828120841461262b5761261f612625916118a3565b95611a1c565b946125fa565b9450505050915090565b509294915050610b16925038808061254056fea2646970667358221220d477fd68f8beb4821a6fac8177d01b8dc657c5b2809010e2cf687aed713cff7d64736f6c63430008120033",
  "linkReferences": {},
  "deployedLinkReferences": {}
}