{
  "_format": "hh-sol-artifact-1",
  "contractName": "PKI",
  "sourceName": "contracts/PKI.sol",
  "abi": [
    {
      "anonymous": false,
      "inputs": [
        {
          "indexed": false,
          "internalType": "uint256",
          "name": "serialNumber",
          "type": "uint256"
        },
        {
          "indexed": false,
          "internalType": "string",
          "name": "commonName",
          "type": "string"
        }
      ],
      "name": "CertificateRequested",
      "type": "event"
    },
    {
      "inputs": [],
      "name": "caCertificateFile",
      "outputs": [
        {
          "internalType": "string",
          "name": "",
          "type": "string"
        }
      ],
      "stateMutability": "view",
      "type": "function"
    },
    {
      "inputs": [
        {
          "internalType": "uint256",
          "name": "serialNumber",
          "type": "uint256"
        }
      ],
      "name": "checkExpiry",
      "outputs": [
        {
          "internalType": "bool",
          "name": "",
          "type": "bool"
        }
      ],
      "stateMutability": "nonpayable",
      "type": "function"
    },
    {
      "inputs": [],
      "name": "getCaCertificate",
      "outputs": [
        {
          "internalType": "string[33]",
          "name": "",
          "type": "string[33]"
        }
      ],
      "stateMutability": "view",
      "type": "function"
    },
    {
      "inputs": [
        {
          "internalType": "uint256",
          "name": "serialNumber",
          "type": "uint256"
        }
      ],
      "name": "getCertificate",
      "outputs": [
        {
          "internalType": "string[33]",
          "name": "",
          "type": "string[33]"
        }
      ],
      "stateMutability": "view",
      "type": "function"
    },
    {
      "inputs": [
        {
          "internalType": "string",
          "name": "name",
          "type": "string"
        }
      ],
      "name": "getCertificate",
      "outputs": [
        {
          "internalType": "string[33]",
          "name": "",
          "type": "string[33]"
        }
      ],
      "stateMutability": "view",
      "type": "function"
    },
    {
      "inputs": [
        {
          "internalType": "string",
          "name": "name",
          "type": "string"
        }
      ],
      "name": "getCertificateFile",
      "outputs": [
        {
          "internalType": "string",
          "name": "",
          "type": "string"
        }
      ],
      "stateMutability": "view",
      "type": "function"
    },
    {
      "inputs": [
        {
          "internalType": "uint256",
          "name": "serialNumber",
          "type": "uint256"
        }
      ],
      "name": "getCertificateFile",
      "outputs": [
        {
          "internalType": "string",
          "name": "",
          "type": "string"
        }
      ],
      "stateMutability": "view",
      "type": "function"
    },
    {
      "inputs": [
        {
          "internalType": "uint256",
          "name": "serialNumber",
          "type": "uint256"
        }
      ],
      "name": "getCertificateStatus",
      "outputs": [
        {
          "internalType": "uint256",
          "name": "",
          "type": "uint256"
        }
      ],
      "stateMutability": "view",
      "type": "function"
    },
    {
      "inputs": [
        {
          "internalType": "string",
          "name": "name",
          "type": "string"
        }
      ],
      "name": "getCertificateStatus",
      "outputs": [
        {
          "internalType": "uint256",
          "name": "",
          "type": "uint256"
        }
      ],
      "stateMutability": "view",
      "type": "function"
    },
    {
      "inputs": [],
      "name": "getPendingCertificate",
      "outputs": [
        {
          "internalType": "string[33]",
          "name": "",
          "type": "string[33]"
        }
      ],
      "stateMutability": "view",
      "type": "function"
    },
    {
      "inputs": [],
      "name": "isPendingCertificate",
      "outputs": [
        {
          "internalType": "bool",
          "name": "",
          "type": "bool"
        }
      ],
      "stateMutability": "view",
      "type": "function"
    },
    {
      "inputs": [
        {
          "internalType": "string",
          "name": "signature",
          "type": "string"
        },
        {
          "internalType": "string",
          "name": "contractAddress",
          "type": "string"
        },
        {
          "internalType": "string",
          "name": "subjectKeyIdentifier",
          "type": "string"
        },
        {
          "internalType": "string",
          "name": "certificateFile",
          "type": "string"
        }
      ],
      "name": "issuePendingCertificate",
      "outputs": [],
      "stateMutability": "nonpayable",
      "type": "function"
    },
    {
      "inputs": [],
      "name": "oldestPendingCertificateSerialNumber",
      "outputs": [
        {
          "internalType": "uint256",
          "name": "",
          "type": "uint256"
        }
      ],
      "stateMutability": "view",
      "type": "function"
    },
    {
      "inputs": [],
      "name": "owner",
      "outputs": [
        {
          "internalType": "address",
          "name": "",
          "type": "address"
        }
      ],
      "stateMutability": "view",
      "type": "function"
    },
    {
      "inputs": [
        {
          "internalType": "string[33]",
          "name": "cert",
          "type": "string[33]"
        },
        {
          "internalType": "string",
          "name": "certFile",
          "type": "string"
        }
      ],
      "name": "populateCaCertificate",
      "outputs": [],
      "stateMutability": "nonpayable",
      "type": "function"
    },
    {
      "inputs": [],
      "name": "rejectPendingCertificate",
      "outputs": [],
      "stateMutability": "nonpayable",
      "type": "function"
    },
    {
      "inputs": [
        {
          "internalType": "string[33]",
          "name": "cert",
          "type": "string[33]"
        }
      ],
      "name": "requestCertificate",
      "outputs": [],
      "stateMutability": "nonpayable",
      "type": "function"
    },
    {
      "inputs": [
        {
          "internalType": "uint256",
          "name": "serialNumber",
          "type": "uint256"
        }
      ],
      "name": "revokeCertificate",
      "outputs": [],
      "stateMutability": "nonpayable",
      "type": "function"
    },
    {
      "inputs": [
        {
          "internalType": "address",
          "name": "newOwner",
          "type": "address"
        }
      ],
      "name": "transferOwnership",
      "outputs": [],
      "stateMutability": "nonpayable",
      "type": "function"
    }
  ],
  "bytecode": "0x6080806040523461002c57600080546001600160a01b031916331790556001805561281d90816100328239f35b600080fdfe6080604052600436101561001257600080fd5b60003560e01c8063044424571461014757806306f5497e146101425780630aec43b21461013d57806312c11837146101385780633cb36a0a1461013357806351640fee1461012e5780637ce4dd301461012957806385ba6918146101245780638740b6871461011f5780638da5cb5b1461011a578063bbe7f23b14610115578063cff902d214610110578063d3bc590b1461010b578063e4357cd714610106578063eb78db5a14610101578063ecdced6c146100fc578063ed0f2e75146100f7578063f2fde38b146100f25763f9eaec3d146100ed57600080fd5b611064565b61101d565b610fe1565b610f92565b610f31565b610f19565b610ef4565b610e5f565b610da9565b610d80565b610d1e565b610c75565b610b6d565b6104d0565b610462565b610346565b610253565b6101c1565b346101aa576000806003193601126101a75761016d60018060a01b0382541633146112a0565b61017d610178611a9d565b611abd565b6001548152602760205260408120600360ff198254161790556101a1600154611b33565b60015580f35b80fd5b600080fd5b60209060031901126101aa5760043590565b346101aa576101cf366101af565b6000906101e660018060a01b0383541633146112a0565b808252602760205260ff604083205416600581101561023f5760010361023b5761022b6102389161021b602454821115611f1d565b6000526027602052604060002090565b805460ff19166002179055565b80f35b5080fd5b634e487b7160e01b83526021600452602483fd5b346101aa5760003660031901126101aa576020600154604051908152f35b634e487b7160e01b600052604160045260246000fd5b61042081019081106001600160401b038211176102a357604052565b610271565b604081019081106001600160401b038211176102a357604052565b90601f801991011681019081106001600160401b038211176102a357604052565b6001600160401b0381116102a357601f01601f191660200190565b81601f820112156101aa57803590610316826102e4565b9261032460405194856102c3565b828452602083830101116101aa57816000926020809301838601378301015290565b346101aa5760803660031901126101aa576001600160401b036004358181116101aa576103779036906004016102ff565b6024358281116101aa5761038f9036906004016102ff565b6044358381116101aa576103a79036906004016102ff565b906064359384116101aa576103c36103c99436906004016102ff565b92611b42565b005b60005b8381106103de5750506000910152565b81810151838201526020016103ce565b90602091610407815180928185528580860191016103cb565b601f01601f1916010190565b6020808252610440820192919060008282015b6021821061043657505050505090565b90919293948380610453600193601f1989820301865289516103ee565b97019201920190939291610426565b346101aa5760003660031901126101aa5761048760405161048281610287565b6115ac565b60405161049381610287565b60026000825b602182106104b357604051806104af8682610413565b0390f35b6001602081926104c286610ab6565b815201930191019091610499565b346101aa576104de366101af565b6104ed60405161048281610287565b602454811161051f5761051361050d6105086104af93611b09565b6119e6565b506115ca565b60405191829182610413565b60405162461bcd60e51b815260206004820152602260248201527f4e6f20636572746966696361746520666f7220746869732073657269616c206e604482015261379760f11b6064820152608490fd5b90600182811c9216801561059f575b602083101461058957565b634e487b7160e01b600052602260045260246000fd5b91607f169161057e565b60405190600082600254916105bd8361056f565b8083529260019081811690811561064557506001146105e6575b506105e4925003836102c3565b565b6002600090815291507f405787fa12a823e0f2b7631cc41b3ba8828b3321ca811111fa75cd3aa3bb5ace5b84831061062a57506105e49350508101602001386105d7565b81935090816020925483858a01015201910190918592610611565b9050602092506105e494915060ff191682840152151560051b820101386105d7565b604051906000826003549161067b8361056f565b8083529260019081811690811561064557506001146106a157506105e4925003836102c3565b6003600090815291507fc2575a0e9e593c00f959f8c92f12db2869c3395a3b0502d05e2516446f71f85b5b8483106106e557506105e49350508101602001386105d7565b81935090816020925483858a010152019101909185926106cc565b60405190600082600454916107148361056f565b80835292600190818116908115610645575060011461073a57506105e4925003836102c3565b6004600090815291507f8a35acfbc15ff81a39ae7d344fd709f28e8600b4aa8c65c6b64bfe7fe36bd19b5b84831061077e57506105e49350508101602001386105d7565b81935090816020925483858a01015201910190918592610765565b60405190600082600554916107ad8361056f565b8083529260019081811690811561064557506001146107d357506105e4925003836102c3565b6005600090815291507f036b6384b5eca791c62761152d0c79bb0604c104a5fb6f4eb0703f3154bb3db05b84831061081757506105e49350508101602001386105d7565b81935090816020925483858a010152019101909185926107fe565b60405190600082600654916108468361056f565b80835292600190818116908115610645575060011461086c57506105e4925003836102c3565b6006600090815291507ff652222313e28459528d920b65115c16c04f3efc82aaedc97be59f3f377c0d3f5b8483106108b057506105e49350508101602001386105d7565b81935090816020925483858a01015201910190918592610897565b60405190600082601f54916108df8361056f565b80835292600190818116908115610645575060011461090557506105e4925003836102c3565b601f600090815291507fa03837a25210ee280c2113ff4b77ca23440b19d4866cca721c801278fd08d8075b84831061094957506105e49350508101602001386105d7565b81935090816020925483858a01015201910190918592610930565b60405190600082601e54916109788361056f565b80835292600190818116908115610645575060011461099e57506105e4925003836102c3565b601e600090815291507f50bb669a95c7b50b7e8a6f09454034b2b14cf2b85c730dca9a539ca82cb6e3505b8483106109e257506105e49350508101602001386105d7565b81935090816020925483858a010152019101909185926109c9565b604051906000826020918254610a128161056f565b80845290600190818116908115610a965750600114610a3a575b50506105e4925003836102c3565b60008581527fc97bfaf2f8ee708c303a06d134f5ecd8389ae0432af62dc132a24118292866bb95935091905b818310610a7e5750506105e493508201013880610a2c565b85548884018501529485019487945091830191610a66565b9150506105e494925060ff191682840152151560051b8201013880610a2c565b9060405191826000825492610aca8461056f565b908184526001948581169081600014610b365750600114610af35750506105e4925003836102c3565b9093915060005260209081600020936000915b818310610b1e5750506105e493508201013880610a2c565b85548884018501529485019487945091830191610b06565b9150506105e494506020925060ff191682840152151560051b8201013880610a2c565b906020610b6a9281815201906103ee565b90565b346101aa576000806003193601126101a7576040519080602354610b908161056f565b80855291600191808316908115610c215750600114610bc6575b6104af85610bba818703826102c3565b60405191829182610b59565b9250602383527fd57b2b5166478fd4318d2acc6cc2c704584312bdd8781b32d5d06abda57f42305b828410610c09575050508101602001610bba826104af610baa565b80546020858701810191909152909301928101610bee565b8695506104af96935060209250610bba94915060ff191682840152151560051b8201019293610baa565b60206003198201126101aa57600435906001600160401b0382116101aa57610b6a916004016102ff565b346101aa57610c8336610c4b565b610c97610c8f82611ef7565b541515611fc4565b610cb9610ca382611ef7565b5491610cb460255480941115611f7f565b611ef7565b54906000198201828111610d19571015610d1457610d007f401968ff42a154441da5f6c4c935ac46b8671f0e062baaa62a7545ba53bb6e4b6104af92602560005201610ab6565b6040519182916020835260208301906103ee565b611606565b6112ec565b346101aa57610d2c366101af565b602554610d3b81831115611f7f565b6000198201828111610d19571015610d1457610d007f401968ff42a154441da5f6c4c935ac46b8671f0e062baaa62a7545ba53bb6e4b6104af92602560005201610ab6565b346101aa5760003660031901126101aa576000546040516001600160a01b039091168152602090f35b346101aa57610db7366101af565b60245481116101aa57600052602760205260ff604060002054166005811015610de557602090604051908152f35b634e487b7160e01b600052602160045260246000fd5b9080601f830112156101aa5760405191610e1483610287565b610420810190838383116101aa5781905b838210610e3457505050505090565b81356001600160401b0381116101aa57602091610e5487849387016102ff565b815201910190610e25565b346101aa5760403660031901126101aa576001600160401b036004358181116101aa57610e90903690600401610dfb565b906024359081116101aa57610ea99036906004016102ff565b90610ebf60018060a01b036000541633146112a0565b6002906000905b60218210610ed7576103c9846113f5565b6001602082610ee8839451876114de565b01930191019091610ec6565b346101aa5760003660031901126101aa576020610f0f611a9d565b6040519015158152f35b346101aa576020610f0f610f2c366101af565b611f24565b346101aa5760003660031901126101aa57610f5160405161048281610287565b610f6660018060a01b036000541633146112a0565b600154610f77602454821115611abd565b6000198101908111610d195761051361050d6104af926119e6565b346101aa57610faf610fa336610c4b565b610cb4610c8f82611ef7565b546000198101908111610d1957600052602760205260ff604060002054166005811015610de557602090604051908152f35b346101aa57611001610ff236610c4b565b610fa360405161048281610287565b546000198101908111610d195761051361050d6104af926119e6565b346101aa5760203660031901126101aa576004356001600160a01b03818116918290036101aa5761105460005491821633146112a0565b6001600160a01b03191617600055005b346101aa5760203660031901126101aa576004356001600160401b0381116101aa576110976103c9913690600401610dfb565b6110a4815151151561161c565b6110b46020820151511515611668565b6110c460408201515115156116b4565b6110d460608201515115156116f7565b6110e46080820151511515611737565b6111156110f5610140830151612197565b61110e611106610160850151612197565b918211611779565b42106117c5565b611126610200820151511515611811565b61113e611137610220830151612197565b151561185c565b61114f6102408201515115156118a8565b611165611160610300830151612218565b6118ed565b611173610320820151612197565b5061118f61118561021b60245461192b565b805460ff19169055565b61123261122d6024547f71788b2570b4c13b8e2e5ea20a66ba7ed6c59af677116a74c2546eead515f1fa6111c28261192b565b8551906111d460405192839283611962565b0390a16111df6105a9565b60a08501526111ec610667565b60c08501526111f9610700565b60e0850152611206610799565b610100850152611214610832565b61012085015261122261199c565b61026085015261192b565b61247b565b6102808201526112406119b9565b6102a082015261124f336122e9565b61034082015261125d6108cb565b61036082015261126b610964565b610380820152611279611979565b6103a08201526112876109fd565b6103e0820152611295611979565b610400820152611a21565b156112a757565b60405162461bcd60e51b815260206004820152601f60248201527f4e6f74206f776e6572206f662074686520736d61727420636f6e7472616374006044820152606490fd5b634e487b7160e01b600052601160045260246000fd5b908160011b9180830460021490151715610d1957565b600381901b91906001600160fd1b03811603610d1957565b601f811161133c575050565b600090602382527fd57b2b5166478fd4318d2acc6cc2c704584312bdd8781b32d5d06abda57f4230906020601f850160051c83019410611397575b601f0160051c01915b82811061138c57505050565b818155600101611380565b9092508290611377565b90601f81116113af57505050565b600091825260208220906020601f850160051c830194106113eb575b601f0160051c01915b8281106113e057505050565b8181556001016113d4565b90925082906113cb565b9081516001600160401b0381116102a35761141a8161141560235461056f565b611330565b602080601f8311600114611456575081929360009261144b575b50508160011b916000199060031b1c191617602355565b015190503880611434565b90601f1983169461148960236000527fd57b2b5166478fd4318d2acc6cc2c704584312bdd8781b32d5d06abda57f423090565b926000905b8782106114c65750508360019596106114ad575b505050811b01602355565b015160001960f88460031b161c191690553880806114a2565b8060018596829496860151815501950193019061148e565b91909182516001600160401b0381116102a357611505816114ff845461056f565b846113a1565b602080601f8311600114611541575081929394600092611536575b50508160011b916000199060031b1c1916179055565b015190503880611520565b90601f1983169561155785600052602060002090565b926000905b8882106115945750508360019596971061157b575b505050811b019055565b015160001960f88460031b161c19169055388080611571565b8060018596829496860151815501950193019061155c565b60005b61042081106115bc575050565b6060828201526020016115af565b90604051916115d883610287565b6000835b602182106115e957505050565b6001602081926115f886610ab6565b8152019301910190916115dc565b634e487b7160e01b600052603260045260246000fd5b1561162357565b60405162461bcd60e51b815260206004820152601760248201527f436f6d6d6f6e206e616d652069732072657175697265640000000000000000006044820152606490fd5b1561166f57565b60405162461bcd60e51b815260206004820152601860248201527f4f7267616e697a6174696f6e20697320726571756972656400000000000000006044820152606490fd5b156116bb57565b60405162461bcd60e51b8152602060048201526014602482015273131bd8d85b1a5d1e481a5cc81c995c5d5a5c995960621b6044820152606490fd5b156116fe57565b60405162461bcd60e51b815260206004820152601160248201527014dd185d19481a5cc81c995c5d5a5c9959607a1b6044820152606490fd5b1561173e57565b60405162461bcd60e51b815260206004820152601360248201527210dbdd5b9d1c9e481a5cc81c995c5d5a5c9959606a1b6044820152606490fd5b1561178057565b60405162461bcd60e51b815260206004820152601a60248201527f56616c696469747920706572696f6420697320696e76616c69640000000000006044820152606490fd5b156117cc57565b60405162461bcd60e51b815260206004820152601e60248201527f436572746966696361746520697320616c7265616479206578706972656400006044820152606490fd5b1561181857565b606460405162461bcd60e51b815260206004820152602060248201527f5075626c6963206b657920616c676f726974686d2069732072657175697265646044820152fd5b1561186357565b60405162461bcd60e51b815260206004820152601a60248201527f5075626c6963206b65792073697a6520697320696e76616c69640000000000006044820152606490fd5b156118af57565b60405162461bcd60e51b8152602060048201526016602482015275141d589b1a58c81ad95e481a5cc81c995c5d5a5c995960521b6044820152606490fd5b156118f457565b60405162461bcd60e51b815260206004820152600f60248201526e1a5cd0d8481a5cc81a5b9d985b1a59608a1b6044820152606490fd5b9060018201809211610d1957565b6002019081600211610d1957565b6003019081600311610d1957565b91908201809211610d1957565b604090610b6a9392815281602082015201906103ee565b60405190602082018281106001600160401b038211176102a35760405260008252565b604051906119a9826102a8565b60018252603360f81b6020830152565b604051906119c6826102a8565b601182527032b1b239b096bbb4ba3416a9a420991a9b60791b6020830152565b602454811015610d14576021906024600052027f7cd332d19b93bcabe3cce7ca0c18a052f57e5fd03b4758a09f30f5ddc4b22ec40190600090565b90602454600160401b8110156102a35760019283820180602455821015610d1457602460005260218092027f7cd332d19b93bcabe3cce7ca0c18a052f57e5fd03b4758a09f30f5ddc4b22ec4016000915b838310611a8157505050509050565b85602082611a91839451866114de565b01920192019190611a72565b611ab260018060a01b036000541633146112a0565b600154602454101590565b15611ac457565b60405162461bcd60e51b815260206004820152601760248201527f4e6f2070656e64696e67206365727469666963617465730000000000000000006044820152606490fd5b600019810191908211610d1957565b6020039060208211610d1957565b91908203918211610d1957565b6000198114610d195760010190565b611bca90611bb0611bcf94959395611b6560018060a01b036000541633146112a0565b611b70610178611a9d565b611b96600197611b90611b866105088b54611b09565b50601d0190600090565b90611cf9565b611b90611ba66105088954611b09565b50601e0190600090565b611b90611bc06105088754611b09565b5060200190600090565b611d1e565b611bf4611be782546000526027602052604060002090565b805460ff19166001179055565b611ca6611c98825480611c12611c0c61050883611b09565b50611df0565b55611c63611c8e610508611c88611c6a611c6f611c6a611c4a611c44611c3a6105088b611b09565b50600c0190600090565b50611e0d565b611c63611c596105088b611b09565b50600d0190600090565b5090611e54565b611e8e565b611c63611c7e61050889611b09565b50600e0190600090565b93611b09565b50600f0190600090565b611ca0611ec6565b90612071565b6000825b611cc3575b5050611cbe6105e49154611b33565b600155565b8151811015611cf45790611ced83928354611ce7611ce18386611ee3565b51611ef7565b55611b33565b9091611caa565b611caf565b9190611d08576105e4916114de565b634e487b7160e01b600052600060045260246000fd5b60255490600160401b8210156102a3576001820180602555821015610d14576105e49160256000527f401968ff42a154441da5f6c4c935ac46b8671f0e062baaa62a7545ba53bb6e4c016114de565b600092918154611d7c8161056f565b92600191808316908115611dd55750600114611d99575b50505050565b90919293945060005260209081600020906000915b858310611dc45750505050019038808080611d93565b805485840152918301918101611dae565b60ff1916845250505081151590910201915038808080611d93565b6020611e029160405192838092611d6d565b602681520301902090565b906105e46001611e27936040519485916020830190611d6d565b600160fd1b815203601e198101855201836102c3565b90611e50602092828151948592016103cb565b0190565b6105e490611e80602094936040519583611e7788955180928480890191016103cb565b84010190611d6d565b03601f1981018452836102c3565b906105e4602160405184611eac8296518092602080860191016103cb565b8101600160fd1b60208201520360018101855201836102c3565b60405190611ed3826102a8565b60018252600160fd1b6020830152565b8051821015610d145760209160051b010190565b6020611f109181604051938285809451938492016103cb565b8101602681520301902090565b156101aa57565b60245481116101aa576000198101818111610d1957611f51600b611f4a611f56936119e6565b5001610ab6565b612197565b4211611f625750600090565b60005260276020526040600020600460ff19825416179055600190565b15611f8657565b60405162461bcd60e51b815260206004820152601660248201527518d95c9d1a599a58d85d19481b9bdd081a5cdcdd595960521b6044820152606490fd5b15611fcb57565b60405162461bcd60e51b815260206004820152601c60248201527f4e6f20636572746966696361746520666f722074686973206e616d65000000006044820152606490fd5b6001600160401b0381116102a35760051b60200190565b9061203182612010565b61203e60405191826102c3565b828152809261204f601f1991612010565b019060005b82811061206057505050565b806060602080938501015201612054565b9061207e6120849161254e565b9161254e565b60009281519160208101946120a4865194865160208801968751926126d0565b85518101809111610d1957905b865183518101809111610d19578211612107576120cd90611b33565b908251908751810390808211610d19576120ed6120f99261210194611b26565b908851908851926126d0565b865190611955565b906120b1565b905061212092955061211b9194935061192b565b612027565b9160005b83518110156121635761215e9061214361213e8585612638565b612574565b61214d8287611ee3565b526121588186611ee3565b50611b33565b612124565b50505090565b805115610d145760200190565b805160011015610d145760210190565b908151811015610d14570160200190565b90600091825b8151811015612214576121b08183612186565b5160f81c603081101580612209575b6121d3575b506121ce90611b33565b61219d565b600a94919491828102928184041490151715610d1957602f19908082810111610d1957820101809111610d1957926121ce6121c4565b5060398111156121bf565b5050565b60405160209081810190612243838286516122368187858b016103cb565b81010380845201826102c3565b519020604051908282018261226382600490637472756560e01b81520190565b0392612277601f19948581018352826102c3565b519020149283156122885750505090565b909192506040516122ac816122a08682018095611e3d565b038481018352826102c3565b519020916122dd60405191820192826122d1856005906466616c736560d81b81520190565b039081018352826102c3565b51902014388080612163565b90604051916bffffffffffffffffffffffff199060601b16602083015260148252612313826102a8565b61231b61240c565b61233561233061232b8551611302565b611939565b612438565b90603061234183612169565b53607861234d83612176565b53600093845b815181101561240457806123a861237c6123a261239c61239661238a61237c6123ff988a612186565b516001600160f81b03191690565b60041c600f60f81b1690565b60f81c90565b60ff1690565b86612186565b6123c16123b761232b84611302565b91891a9187612186565b536123e561237c6123a261239c600f60f81b6123de84878a612186565b1660f81c90565b6123f96123b76123f484611302565b611947565b53611b33565b612353565b509193505050565b60405190612419826102a8565b601082526f181899199a1a9b1b9c1cb0b131b232b360811b6020830152565b90612442826102e4565b61244f60405191826102c3565b8281528092612460601f19916102e4565b0190602036910137565b60ff166030019060ff8211610d1957565b801561251757806000908282935b61250357508061249884612438565b93905b6124a55750505090565b6124ae90611b09565b9081600a9182810492808402908482041484151715610d19578103908111610d19576124f26124e260ff6124fb931661246a565b60f81b6001600160f81b03191690565b851a9186612186565b53908161249b565b9261250f600a91611b33565b930480612489565b50604051612524816102a8565b60018152600360fc1b602082015290565b60405190612542826102a8565b60006020838281520152565b612556612535565b50602081519160405192612569846102a8565b835201602082015290565b805190612599612583836102e4565b9261259160405194856102c3565b8084526102e4565b601f19906020848101918301368337808401519351919391925b818410156125fc575060001992806125d6575b5050518251821691191617905290565b908092935003908111610d19576125ef6125f491612629565b611b09565b9038806125c6565b92919384518152818101809111610d195793818101809111610d195791838101908111610d1957926125b3565b601f8111610d19576101000a90565b9190612642612535565b9261264b612535565b50805191612667602083019384518351906020850151926126d0565b908351602087015283518203828111610d19578652835183518101809111610d195782036126985750506000915052565b85519281518401809411610d19576126b46126bd948251611b26565b90525190611955565b9052565b60ff8111610d19576001901b90565b919281936000848211156126ec575b505050610b6a9250611955565b919392916020821161278f575060009381612765575b5184169392919061271c906127178484611955565b611b26565b84848751165b0361272f57505050505090565b9091929394818110156127565761274590611b33565b948486511690809594939291612722565b5050909150610b6a9250611955565b935061271c6127866125ef61278161277c85611b18565b611318565b6126c1565b19949050612702565b9290809296942092945b6127a38383611b26565b86116127d45782812084146127ca576127be6127c49161192b565b95611b33565b94612799565b9450505050915090565b509294915050610b6a92503880806126df56fea26469706673582212202e93ea836c2db11f2aba1cd1986e28b8fa6a05ec0309c04b64e0d425699d07d164736f6c63430008120033",
  "linkReferences": {},
  "deployedLinkReferences": {}
}