{
  "_format": "hh-sol-artifact-1",
  "contractName": "PKI",
  "sourceName": "contracts/pki.sol",
  "abi": [
    {
      "anonymous": false,
      "inputs": [
        {
          "indexed": false,
          "internalType": "uint256",
          "name": "serialNumber",
          "type": "uint256"
        },
        {
          "indexed": false,
          "internalType": "string",
          "name": "commonName",
          "type": "string"
        }
      ],
      "name": "CertificateRequested",
      "type": "event"
    },
    {
      "inputs": [],
      "name": "getCaCertificate",
      "outputs": [
        {
          "internalType": "string[33]",
          "name": "",
          "type": "string[33]"
        }
      ],
      "stateMutability": "view",
      "type": "function"
    },
    {
      "inputs": [
        {
          "internalType": "uint256",
          "name": "serialNumber",
          "type": "uint256"
        }
      ],
      "name": "getCertificate",
      "outputs": [
        {
          "internalType": "string[33]",
          "name": "",
          "type": "string[33]"
        }
      ],
      "stateMutability": "view",
      "type": "function"
    },
    {
      "inputs": [
        {
          "internalType": "string",
          "name": "name",
          "type": "string"
        }
      ],
      "name": "getCertificate",
      "outputs": [
        {
          "internalType": "string[33]",
          "name": "",
          "type": "string[33]"
        }
      ],
      "stateMutability": "view",
      "type": "function"
    },
    {
      "inputs": [
        {
          "internalType": "uint256",
          "name": "serialNumber",
          "type": "uint256"
        }
      ],
      "name": "getCertificateStatus",
      "outputs": [
        {
          "internalType": "uint256",
          "name": "",
          "type": "uint256"
        }
      ],
      "stateMutability": "view",
      "type": "function"
    },
    {
      "inputs": [],
      "name": "getPendingCertificate",
      "outputs": [
        {
          "internalType": "string[33]",
          "name": "",
          "type": "string[33]"
        }
      ],
      "stateMutability": "view",
      "type": "function"
    },
    {
      "inputs": [
        {
          "internalType": "string",
          "name": "signature",
          "type": "string"
        }
      ],
      "name": "issueCertificate",
      "outputs": [],
      "stateMutability": "nonpayable",
      "type": "function"
    },
    {
      "inputs": [],
      "name": "owner",
      "outputs": [
        {
          "internalType": "address",
          "name": "",
          "type": "address"
        }
      ],
      "stateMutability": "view",
      "type": "function"
    },
    {
      "inputs": [
        {
          "internalType": "string[33]",
          "name": "cert",
          "type": "string[33]"
        }
      ],
      "name": "populateCaCertificate",
      "outputs": [],
      "stateMutability": "nonpayable",
      "type": "function"
    },
    {
      "inputs": [],
      "name": "rejectPendingCertificate",
      "outputs": [],
      "stateMutability": "nonpayable",
      "type": "function"
    },
    {
      "inputs": [
        {
          "internalType": "string[33]",
          "name": "cert",
          "type": "string[33]"
        }
      ],
      "name": "requestCertificate",
      "outputs": [],
      "stateMutability": "nonpayable",
      "type": "function"
    },
    {
      "inputs": [
        {
          "internalType": "uint256",
          "name": "serialNumber",
          "type": "uint256"
        }
      ],
      "name": "revokeCertificate",
      "outputs": [],
      "stateMutability": "nonpayable",
      "type": "function"
    },
    {
      "inputs": [
        {
          "internalType": "string",
          "name": "s",
          "type": "string"
        }
      ],
      "name": "stringToUint",
      "outputs": [
        {
          "internalType": "uint256",
          "name": "",
          "type": "uint256"
        }
      ],
      "stateMutability": "pure",
      "type": "function"
    },
    {
      "inputs": [
        {
          "internalType": "address",
          "name": "account",
          "type": "address"
        }
      ],
      "name": "toString",
      "outputs": [
        {
          "internalType": "string",
          "name": "",
          "type": "string"
        }
      ],
      "stateMutability": "pure",
      "type": "function"
    },
    {
      "inputs": [
        {
          "internalType": "bytes",
          "name": "data",
          "type": "bytes"
        }
      ],
      "name": "toString",
      "outputs": [
        {
          "internalType": "string",
          "name": "",
          "type": "string"
        }
      ],
      "stateMutability": "pure",
      "type": "function"
    },
    {
      "inputs": [
        {
          "internalType": "address",
          "name": "newOwner",
          "type": "address"
        }
      ],
      "name": "transferOwnership",
      "outputs": [],
      "stateMutability": "nonpayable",
      "type": "function"
    }
  ],
  "bytecode": "0x6080806040523461002c57600080546001600160a01b0319163317905560018055611f9690816100328239f35b600080fdfe6080604052600436101561001257600080fd5b60003560e01c8063044424571461010757806306f5497e146101025780631bd95155146100fd5780633cb36a0a146100f857806351640fee146100f357806356ca623e146100ee57806371aad10d146100e95780638da5cb5b146100e4578063a90547a6146100df578063bbe7f23b146100da578063dae6f618146100d5578063eb78db5a146100d0578063ed0f2e75146100cb578063f2fde38b146100c65763f9eaec3d146100c157600080fd5b610988565b61094c565b6108b6565b610815565b6107c5565b6106ed565b61057a565b610551565b610504565b6104d7565b61045d565b6103ef565b610338565b6101bb565b346101a4576000806003193601126101a15761012d60018060a01b038254163314610b70565b600154808252602560205260ff604083205416600581101561018d576101779161015a61016a921561156f565b6000526025602052604060002090565b805460ff19166003179055565b61018a610185600154611576565b600155565b80f35b634e487b7160e01b83526021600452602483fd5b80fd5b600080fd5b60209060031901126101a45760043590565b346101a4576101c9366101a9565b6000906101e060018060a01b038354163314610b70565b808252602560205260ff604083205416600581101561018d576001036102225761021561018a9161015a60235482111561156f565b805460ff19166002179055565b5080fd5b634e487b7160e01b600052604160045260246000fd5b610420810190811067ffffffffffffffff82111761025957604052565b610226565b6040810190811067ffffffffffffffff82111761025957604052565b90601f8019910116810190811067ffffffffffffffff82111761025957604052565b67ffffffffffffffff811161025957601f01601f191660200190565b9291926102c48261029c565b916102d2604051938461027a565b8294818452818301116101a4578281602093846000960137010152565b9080601f830112156101a45781602061030a933591016102b8565b90565b60206003198201126101a4576004359067ffffffffffffffff82116101a45761030a916004016102ef565b346101a457602061035061034b3661030d565b61190c565b604051908152f35b60005b83811061036b5750506000910152565b818101518382015260200161035b565b9060209161039481518092818552858086019101610358565b601f01601f1916010190565b6020808252610440820192919060008282015b602182106103c357505050505090565b909192939483806103e0600193601f19898203018652895161037b565b970192019201909392916103b3565b346101a45760003660031901126101a45761041460405161040f8161023c565b610d5d565b6040516104208161023c565b60026000825b60218210610440576040518061043c86826103a0565b0390f35b60016020819261044f86610f8b565b815201930191019091610426565b346101a45761046b366101a9565b61047a60405161040f8161023c565b60235481116101a45760001981019081116104b0576104a461049e61043c926114ae565b5061102e565b604051918291826103a0565b610bbc565b60209060031901126101a4576004356001600160a01b03811681036101a45790565b346101a45761043c6104f06104eb366104b5565b611a5e565b60405191829160208352602083019061037b565b346101a45760203660031901126101a45760043567ffffffffffffffff81116101a457366023820112156101a4576104f061054c61043c9236906024816004013591016102b8565b611ae9565b346101a45760003660031901126101a4576000546040516001600160a01b039091168152602090f35b346101a4576105883661030d565b61059d60018060a01b03600054163314610b70565b6105c86001916105c26105b86105b38554611585565b6114ae565b5060200190600090565b906115af565b6105ed6105e082546000526025602052604060002090565b805460ff19166001179055565b61069f61069182548061060b6106056105b383611585565b50611657565b5561065c6106876105b361068161066361066861066361064361063d6106336105b38b611585565b50600c0190600090565b50611674565b61065c6106526105b38b611585565b50600d0190600090565b50906116bb565b6116f5565b61065c6106776105b389611585565b50600e0190600090565b93611585565b50600f0190600090565b61069961172d565b906117e6565b6000825b6106b7575b6106b56101858454611576565b005b81518110156106e857906106e1839283546106db6106d5838661174a565b5161175e565b55611576565b90916106a3565b6106a8565b346101a4576106fb366101a9565b60235481116101a457600052602560205260ff60406000205416600581101561072957602090604051908152f35b634e487b7160e01b600052602160045260246000fd5b6020806003198301126101a457600480359267ffffffffffffffff908185116101a457806023860112156101a4576040519461077a8661023c565b85916104248201948186116101a457828101935b8685106107a057505050505050505090565b84358681116101a45788916107ba858585948901016102ef565b81520194019361078e565b346101a4576107d33661073f565b6107e860018060a01b03600054163314610b70565b60026000915b602183106107f857005b600160208261080983945186610c8e565b019201920191906107ee565b346101a45760003660031901126101a45761083560405161040f8161023c565b61084a60018060a01b03600054163314610b70565b60015460235481116108715760001981019081116104b0576104a461049e61043c926114ae565b60405162461bcd60e51b815260206004820152601760248201527f4e6f2070656e64696e67206365727469666963617465730000000000000000006044820152606490fd5b346101a4576108c43661030d565b6108d360405161040f8161023c565b6108dc8161175e565b5415610907576108eb9061175e565b5460001981019081116104b0576104a461049e61043c926114ae565b60405162461bcd60e51b815260206004820152601c60248201527f4e6f20636572746966696361746520666f722074686973206e616d65000000006044820152606490fd5b346101a45761095a366104b5565b600054906001600160a01b03906109743383851614610b70565b6001600160a01b0319909216911617600055005b346101a4576106b56109993661073f565b6109a68151511515611080565b6109b660208201515115156110cc565b6109c66040820151511515611118565b6109d6606082015151151561115b565b6109e6608082015151151561119b565b610a176109f761014083015161190c565b610a10610a0861016085015161190c565b9182116111dd565b4210611229565b610a28610200820151511515611275565b610a40610a3961022083015161190c565b15156112c0565b610a5161024082015151151561130c565b610a67610a6261030083015161198d565b611351565b610a7561032082015161190c565b50610a876103c082015151151561138f565b610aa2610a9861015a6023546113e6565b805460ff19169055565b610b02610afd6023547f71788b2570b4c13b8e2e5ea20a66ba7ed6c59af677116a74c2546eead515f1fa610ad5826113e6565b855190610ae76040519283928361141d565b0390a1610af2611458565b6102608501526113e6565b611bf4565b610280820152610b10611475565b6102a0820152610b1e610d7b565b6103e0820152610b2d33611a5e565b610340820152610b3b610e36565b610360820152610b49610ef2565b610380820152610b57611434565b6103a0820152610b65611434565b6104008201526114ee565b15610b7757565b60405162461bcd60e51b815260206004820152601f60248201527f4e6f74206f776e6572206f662074686520736d61727420636f6e7472616374006044820152606490fd5b634e487b7160e01b600052601160045260246000fd5b908160011b91808304600214901517156104b057565b600381901b91906001600160fd1b038116036104b057565b90600182811c92168015610c30575b6020831014610c1a57565b634e487b7160e01b600052602260045260246000fd5b91607f1691610c0f565b90601f8111610c4857505050565b600091825260208220906020601f850160051c83019410610c84575b601f0160051c01915b828110610c7957505050565b818155600101610c6d565b9092508290610c64565b919091825167ffffffffffffffff811161025957610cb681610cb08454610c00565b84610c3a565b602080601f8311600114610cf2575081929394600092610ce7575b50508160011b916000199060031b1c1916179055565b015190503880610cd1565b90601f19831695610d0885600052602060002090565b926000905b888210610d4557505083600195969710610d2c575b505050811b019055565b015160001960f88460031b161c19169055388080610d22565b80600185968294968601518155019501930190610d0d565b60005b6104208110610d6d575050565b606082820152602001610d60565b604051906000826020918254610d9081610c00565b80845290600190818116908115610e165750600114610dba575b5050610db89250038361027a565b565b60008581527fc97bfaf2f8ee708c303a06d134f5ecd8389ae0432af62dc132a24118292866bb95935091905b818310610dfe575050610db893508201013880610daa565b85548884018501529485019487945091830191610de6565b915050610db894925060ff191682840152151560051b8201013880610daa565b60405190600082601c5491610e4a83610c00565b80835292600190818116908115610ed05750600114610e71575b50610db89250038361027a565b601c600090815291507f0e4562a10381dec21b205ed72637e6b1b523bdd0e4d4d50af5cd23dd4500a2115b848310610eb55750610db8935050810160200138610e64565b81935090816020925483858a01015201910190918592610e9c565b905060209250610db894915060ff191682840152151560051b82010138610e64565b60405190600082601e5491610f0683610c00565b80835292600190818116908115610ed05750600114610f2c5750610db89250038361027a565b601e600090815291507f50bb669a95c7b50b7e8a6f09454034b2b14cf2b85c730dca9a539ca82cb6e3505b848310610f705750610db8935050810160200138610e64565b81935090816020925483858a01015201910190918592610f57565b9060405191826000825492610f9f84610c00565b90818452600194858116908160001461100b5750600114610fc8575050610db89250038361027a565b9093915060005260209081600020936000915b818310610ff3575050610db893508201013880610daa565b85548884018501529485019487945091830191610fdb565b915050610db894506020925060ff191682840152151560051b8201013880610daa565b906040519161103c8361023c565b6000835b6021821061104d57505050565b60016020819261105c86610f8b565b815201930191019091611040565b634e487b7160e01b600052603260045260246000fd5b1561108757565b60405162461bcd60e51b815260206004820152601760248201527f436f6d6d6f6e206e616d652069732072657175697265640000000000000000006044820152606490fd5b156110d357565b60405162461bcd60e51b815260206004820152601860248201527f4f7267616e697a6174696f6e20697320726571756972656400000000000000006044820152606490fd5b1561111f57565b60405162461bcd60e51b8152602060048201526014602482015273131bd8d85b1a5d1e481a5cc81c995c5d5a5c995960621b6044820152606490fd5b1561116257565b60405162461bcd60e51b815260206004820152601160248201527014dd185d19481a5cc81c995c5d5a5c9959607a1b6044820152606490fd5b156111a257565b60405162461bcd60e51b815260206004820152601360248201527210dbdd5b9d1c9e481a5cc81c995c5d5a5c9959606a1b6044820152606490fd5b156111e457565b60405162461bcd60e51b815260206004820152601a60248201527f56616c696469747920706572696f6420697320696e76616c69640000000000006044820152606490fd5b1561123057565b60405162461bcd60e51b815260206004820152601e60248201527f436572746966696361746520697320616c7265616479206578706972656400006044820152606490fd5b1561127c57565b606460405162461bcd60e51b815260206004820152602060248201527f5075626c6963206b657920616c676f726974686d2069732072657175697265646044820152fd5b156112c757565b60405162461bcd60e51b815260206004820152601a60248201527f5075626c6963206b65792073697a6520697320696e76616c69640000000000006044820152606490fd5b1561131357565b60405162461bcd60e51b8152602060048201526016602482015275141d589b1a58c81ad95e481a5cc81c995c5d5a5c995960521b6044820152606490fd5b1561135857565b60405162461bcd60e51b815260206004820152600f60248201526e1a5cd0d8481a5cc81a5b9d985b1a59608a1b6044820152606490fd5b1561139657565b60405162461bcd60e51b815260206004820152602260248201527f5375626a656374206b6579206964656e74696669657220697320726571756972604482015261195960f21b6064820152608490fd5b90600182018092116104b057565b60020190816002116104b057565b60030190816003116104b057565b919082018092116104b057565b60409061030a93928152816020820152019061037b565b604051906020820182811067ffffffffffffffff8211176102595760405260008252565b604051906114658261025e565b60018252603360f81b6020830152565b604051906114828261025e565b601b82527f5348412d32353620776974682052534120456e6372797074696f6e00000000006020830152565b6023548110156114e9576021906023600052027fd57b2b5166478fd4318d2acc6cc2c704584312bdd8781b32d5d06abda57f42300190600090565b61106a565b906023546801000000000000000081101561025957600192838201806023558210156114e957602360005260218092027fd57b2b5166478fd4318d2acc6cc2c704584312bdd8781b32d5d06abda57f4230016000915b83831061155357505050509050565b8560208261156383945186610c8e565b01920192019190611544565b156101a457565b60001981146104b05760010190565b6000198101919082116104b057565b60200390602082116104b057565b919082039182116104b057565b91906115be57610db891610c8e565b634e487b7160e01b600052600060045260246000fd5b6000929181546115e381610c00565b9260019180831690811561163c5750600114611600575b50505050565b90919293945060005260209081600020906000915b85831061162b57505050500190388080806115fa565b805485840152918301918101611615565b60ff19168452505050811515909102019150388080806115fa565b602061166991604051928380926115d4565b602481520301902090565b90610db8600161168e9360405194859160208301906115d4565b600160fd1b815203601e1981018552018361027a565b906116b760209282815194859201610358565b0190565b610db8906116e76020949360405195836116de8895518092848089019101610358565b840101906115d4565b03601f19810184528361027a565b90610db8602160405184611713829651809260208086019101610358565b8101600160fd1b602082015203600181018552018361027a565b6040519061173a8261025e565b60018252600160fd1b6020830152565b80518210156114e95760209160051b010190565b6020611777918160405193828580945193849201610358565b8101602481520301902090565b67ffffffffffffffff81116102595760051b60200190565b906117a682611784565b6117b3604051918261027a565b82815280926117c4601f1991611784565b019060005b8281106117d557505050565b8060606020809385010152016117c9565b906117f36117f991611cc7565b91611cc7565b600092815191602081019461181986519486516020880196875192611e49565b855181018091116104b057905b8651835181018091116104b057821161187c5761184290611576565b9082519087518103908082116104b05761186261186e92611876946115a2565b90885190885192611e49565b865190611410565b90611826565b9050611895929550611890919493506113e6565b61179c565b9160005b83518110156118d8576118d3906118b86118b38585611db1565b611ced565b6118c2828761174a565b526118cd818661174a565b50611576565b611899565b50505090565b8051156114e95760200190565b8051600110156114e95760210190565b9081518110156114e9570160200190565b90600091825b81518110156119895761192581836118fb565b5160f81c60308110158061197e575b611948575b5061194390611576565b611912565b600a949194918281029281840414901517156104b057602f199080828101116104b0578201018091116104b05792611943611939565b506039811115611934565b5050565b604051602090818101906119b8838286516119ab8187858b01610358565b810103808452018261027a565b51902060405190828201826119d882600490637472756560e01b81520190565b03926119ec601f199485810183528261027a565b519020149283156119fd5750505090565b90919250604051611a2181611a1586820180956116a4565b0384810183528261027a565b51902091611a526040519182019282611a46856005906466616c736560d81b81520190565b0390810183528261027a565b519020143880806118d8565b61030a90604051906bffffffffffffffffffffffff199060601b1660208201526014815261054c8161025e565b60405190611a988261025e565b601082526f181899199a1a9b1b9c1cb0b131b232b360811b6020830152565b90611ac18261029c565b611ace604051918261027a565b8281528092611adf601f199161029c565b0190602036910137565b90611af2611a8b565b611b0c611b07611b028551610bd2565b6113f4565b611ab7565b906030611b18836118de565b536078611b24836118eb565b53600093845b8151811015611bdb5780611b7f611b53611b79611b73611b6d611b61611b53611bd6988a6118fb565b516001600160f81b03191690565b60041c600f60f81b1690565b60f81c90565b60ff1690565b866118fb565b611b98611b8e611b0284610bd2565b91891a91876118fb565b53611bbc611b53611b79611b73600f60f81b611bb584878a6118fb565b1660f81c90565b611bd0611b8e611bcb84610bd2565b611402565b53611576565b611b2a565b509193505050565b60ff166030019060ff82116104b057565b8015611c9057806000908282935b611c7c575080611c1184611ab7565b93905b611c1e5750505090565b611c2790611585565b9081600a91828104928084029084820414841517156104b05781039081116104b057611c6b611c5b60ff611c749316611be3565b60f81b6001600160f81b03191690565b851a91866118fb565b539081611c14565b92611c88600a91611576565b930480611c02565b50604051611c9d8161025e565b60018152600360fc1b602082015290565b60405190611cbb8261025e565b60006020838281520152565b611ccf611cae565b50602081519160405192611ce28461025e565b835201602082015290565b805190611d12611cfc8361029c565b92611d0a604051948561027a565b80845261029c565b601f19906020848101918301368337808401519351919391925b81841015611d7557506000199280611d4f575b5050518251821691191617905290565b9080929350039081116104b057611d68611d6d91611da2565b611585565b903880611d3f565b929193845181528181018091116104b057938181018091116104b057918381019081116104b05792611d2c565b601f81116104b0576101000a90565b9190611dbb611cae565b92611dc4611cae565b50805191611de060208301938451835190602085015192611e49565b9083516020870152835182038281116104b05786528351835181018091116104b0578203611e115750506000915052565b855192815184018094116104b057611e2d611e369482516115a2565b90525190611410565b9052565b60ff81116104b0576001901b90565b91928193600084821115611e65575b50505061030a9250611410565b9193929160208211611f08575060009381611ede575b51841693929190611e9590611e908484611410565b6115a2565b84848751165b03611ea857505050505090565b909192939481811015611ecf57611ebe90611576565b948486511690809594939291611e9b565b505090915061030a9250611410565b9350611e95611eff611d68611efa611ef585611594565b610be8565b611e3a565b19949050611e7b565b9290809296942092945b611f1c83836115a2565b8611611f4d578281208414611f4357611f37611f3d916113e6565b95611576565b94611f12565b9450505050915090565b50929491505061030a9250388080611e5856fea2646970667358221220d00f5ab9191e3f8bef81c3509bfe4e45b43f8df4763c670c6dde23b8911e579c64736f6c63430008120033",
  "linkReferences": {},
  "deployedLinkReferences": {}
}