{
  "_format": "hh-sol-artifact-1",
  "contractName": "PKI",
  "sourceName": "contracts/pki.sol",
  "abi": [
    {
      "anonymous": false,
      "inputs": [
        {
          "indexed": false,
          "internalType": "uint256",
          "name": "serialNumber",
          "type": "uint256"
        },
        {
          "indexed": false,
          "internalType": "string",
          "name": "commonName",
          "type": "string"
        }
      ],
      "name": "CertificateRequested",
      "type": "event"
    },
    {
      "inputs": [],
      "name": "getCaCertificate",
      "outputs": [
        {
          "internalType": "string[33]",
          "name": "",
          "type": "string[33]"
        }
      ],
      "stateMutability": "view",
      "type": "function"
    },
    {
      "inputs": [
        {
          "internalType": "uint256",
          "name": "serialNumber",
          "type": "uint256"
        }
      ],
      "name": "getCertificate",
      "outputs": [
        {
          "internalType": "string[33]",
          "name": "",
          "type": "string[33]"
        }
      ],
      "stateMutability": "view",
      "type": "function"
    },
    {
      "inputs": [
        {
          "internalType": "string",
          "name": "name",
          "type": "string"
        }
      ],
      "name": "getCertificate",
      "outputs": [
        {
          "internalType": "string[33]",
          "name": "",
          "type": "string[33]"
        }
      ],
      "stateMutability": "view",
      "type": "function"
    },
    {
      "inputs": [
        {
          "internalType": "uint256",
          "name": "serialNumber",
          "type": "uint256"
        }
      ],
      "name": "getCertificateStatus",
      "outputs": [
        {
          "internalType": "uint256",
          "name": "",
          "type": "uint256"
        }
      ],
      "stateMutability": "view",
      "type": "function"
    },
    {
      "inputs": [],
      "name": "getPendingCertificate",
      "outputs": [
        {
          "internalType": "string[33]",
          "name": "",
          "type": "string[33]"
        }
      ],
      "stateMutability": "view",
      "type": "function"
    },
    {
      "inputs": [],
      "name": "isPendingCertificate",
      "outputs": [
        {
          "internalType": "bool",
          "name": "",
          "type": "bool"
        }
      ],
      "stateMutability": "view",
      "type": "function"
    },
    {
      "inputs": [
        {
          "internalType": "string",
          "name": "signature",
          "type": "string"
        },
        {
          "internalType": "string",
          "name": "caAddress",
          "type": "string"
        }
      ],
      "name": "issuePendingCertificate",
      "outputs": [],
      "stateMutability": "nonpayable",
      "type": "function"
    },
    {
      "inputs": [],
      "name": "oldestPendingCertificateSerialNumber",
      "outputs": [
        {
          "internalType": "uint256",
          "name": "",
          "type": "uint256"
        }
      ],
      "stateMutability": "view",
      "type": "function"
    },
    {
      "inputs": [],
      "name": "owner",
      "outputs": [
        {
          "internalType": "address",
          "name": "",
          "type": "address"
        }
      ],
      "stateMutability": "view",
      "type": "function"
    },
    {
      "inputs": [
        {
          "internalType": "string[33]",
          "name": "cert",
          "type": "string[33]"
        }
      ],
      "name": "populateCaCertificate",
      "outputs": [],
      "stateMutability": "nonpayable",
      "type": "function"
    },
    {
      "inputs": [],
      "name": "rejectPendingCertificate",
      "outputs": [],
      "stateMutability": "nonpayable",
      "type": "function"
    },
    {
      "inputs": [
        {
          "internalType": "string[33]",
          "name": "cert",
          "type": "string[33]"
        }
      ],
      "name": "requestCertificate",
      "outputs": [],
      "stateMutability": "nonpayable",
      "type": "function"
    },
    {
      "inputs": [
        {
          "internalType": "uint256",
          "name": "serialNumber",
          "type": "uint256"
        }
      ],
      "name": "revokeCertificate",
      "outputs": [],
      "stateMutability": "nonpayable",
      "type": "function"
    },
    {
      "inputs": [
        {
          "internalType": "address",
          "name": "newOwner",
          "type": "address"
        }
      ],
      "name": "transferOwnership",
      "outputs": [],
      "stateMutability": "nonpayable",
      "type": "function"
    }
  ],
  "bytecode": "0x6080806040523461002c57600080546001600160a01b0319163317905560018055611f6e90816100328239f35b600080fdfe6080604052600436101561001257600080fd5b60003560e01c806304442457146100f757806306f5497e146100f25780630aec43b2146100ed5780630cbe4d58146100e85780633cb36a0a146100e357806351640fee146100de5780638da5cb5b146100d9578063bbe7f23b146100d4578063d3bc590b146100cf578063dae6f618146100ca578063eb78db5a146100c5578063ed0f2e75146100c0578063f2fde38b146100bb5763f9eaec3d146100b657600080fd5b610961565b61091a565b610861565b6107c0565b610770565b6106b2565b610660565b610637565b6105df565b610571565b61030d565b610216565b6101ab565b34610194576000806003193601126101915761011d60018060a01b038254163314610b49565b600154808252602560205260ff604083205416600581101561017d576101679161014a61015a921561154b565b6000526025602052604060002090565b805460ff19166003179055565b61017a610175600154611552565b600155565b80f35b634e487b7160e01b83526021600452602483fd5b80fd5b600080fd5b60209060031901126101945760043590565b34610194576101b936610199565b6000906101d060018060a01b038354163314610b49565b808252602560205260ff604083205416600581101561017d576001036102125761020561017a9161014a60235482111561154b565b805460ff19166002179055565b5080fd5b34610194576000366003190112610194576020600154604051908152f35b634e487b7160e01b600052604160045260246000fd5b610420810190811067ffffffffffffffff82111761026757604052565b610234565b6040810190811067ffffffffffffffff82111761026757604052565b90601f8019910116810190811067ffffffffffffffff82111761026757604052565b67ffffffffffffffff811161026757601f01601f191660200190565b81601f82011215610194578035906102dd826102aa565b926102eb6040519485610288565b8284526020838301011161019457816000926020809301838601378301015290565b346101945760403660031901126101945767ffffffffffffffff6004358181116101945761033f9036906004016102c6565b906024359081116101945761035b6103b59136906004016102c6565b61037060018060a01b03600054163314610b49565b61039b60019361039561038b6103868754611561565b61148a565b5060200190600090565b9061158b565b6103956103ab6103868554611561565b50601d0190600090565b6103da6103cd82546000526025602052604060002090565b805460ff19166001179055565b61048c61047e8254806103f86103f261038683611561565b50611633565b5561044961047461038661046e61045061045561045061043061042a6104206103868b611561565b50600c0190600090565b50611650565b61044961043f6103868b611561565b50600d0190600090565b5090611697565b6116d1565b61044961046461038689611561565b50600e0190600090565b93611561565b50600f0190600090565b610486611709565b906117c2565b6000825b6104a4575b6104a26101758454611552565b005b81518110156104d557906104ce839283546104c86104c28386611726565b5161173a565b55611552565b9091610490565b610495565b60005b8381106104ed5750506000910152565b81810151838201526020016104dd565b90602091610516815180928185528580860191016104da565b601f01601f1916010190565b6020808252610440820192919060008282015b6021821061054557505050505090565b90919293948380610562600193601f1989820301865289516104fd565b97019201920190939291610535565b34610194576000366003190112610194576105966040516105918161024a565b610d36565b6040516105a28161024a565b60026000825b602182106105c257604051806105be8682610522565b0390f35b6001602081926105d186610f64565b8152019301910190916105a8565b34610194576105ed36610199565b6105fc6040516105918161024a565b6023548111610194576000198101908111610632576106266106206105be9261148a565b50611007565b60405191829182610522565b610b95565b34610194576000366003190112610194576000546040516001600160a01b039091168152602090f35b346101945761066e36610199565b602354811161019457600052602560205260ff60406000205416600581101561069c57602090604051908152f35b634e487b7160e01b600052602160045260246000fd5b34610194576000366003190112610194576106d860018060a01b03600054163314610b49565b60206001546023541015604051908152f35b60208060031983011261019457600480359267ffffffffffffffff90818511610194578060238601121561019457604051946107258661024a565b859161042482019481861161019457828101935b86851061074b57505050505050505090565b8435868111610194578891610765858585948901016102c6565b815201940193610739565b346101945761077e366106ea565b61079360018060a01b03600054163314610b49565b60026000915b602183106107a357005b60016020826107b483945186610c67565b01920192019190610799565b34610194576000366003190112610194576107e06040516105918161024a565b6107f560018060a01b03600054163314610b49565b600154602354811161081c576000198101908111610632576106266106206105be9261148a565b60405162461bcd60e51b815260206004820152601760248201527f4e6f2070656e64696e67206365727469666963617465730000000000000000006044820152606490fd5b346101945760203660031901126101945760043567ffffffffffffffff8111610194576108929036906004016102c6565b6108a16040516105918161024a565b6108aa8161173a565b54156108d5576108b99061173a565b546000198101908111610632576106266106206105be9261148a565b60405162461bcd60e51b815260206004820152601c60248201527f4e6f20636572746966696361746520666f722074686973206e616d65000000006044820152606490fd5b34610194576020366003190112610194576004356001600160a01b0381811691829003610194576109516000549182163314610b49565b6001600160a01b03191617600055005b34610194576104a2610972366106ea565b61097f8151511515611059565b61098f60208201515115156110a5565b61099f60408201515115156110f1565b6109af6060820151511515611134565b6109bf6080820151511515611174565b6109f06109d06101408301516118e8565b6109e96109e16101608501516118e8565b9182116111b6565b4210611202565b610a0161020082015151151561124e565b610a19610a126102208301516118e8565b1515611299565b610a2a6102408201515115156112e5565b610a40610a3b610300830151611969565b61132a565b610a4e6103208201516118e8565b50610a606103c0820151511515611368565b610a7b610a7161014a6023546113bf565b805460ff19169055565b610adb610ad66023547f71788b2570b4c13b8e2e5ea20a66ba7ed6c59af677116a74c2546eead515f1fa610aae826113bf565b855190610ac0604051928392836113f6565b0390a1610acb611434565b6102608501526113bf565b611bcc565b610280820152610ae9611451565b6102a0820152610af7610d54565b6103e0820152610b0633611a3a565b610340820152610b14610e0f565b610360820152610b22610ecb565b610380820152610b30611410565b6103a0820152610b3e611410565b6104008201526114ca565b15610b5057565b60405162461bcd60e51b815260206004820152601f60248201527f4e6f74206f776e6572206f662074686520736d61727420636f6e7472616374006044820152606490fd5b634e487b7160e01b600052601160045260246000fd5b908160011b918083046002149015171561063257565b600381901b91906001600160fd1b0381160361063257565b90600182811c92168015610c09575b6020831014610bf357565b634e487b7160e01b600052602260045260246000fd5b91607f1691610be8565b90601f8111610c2157505050565b600091825260208220906020601f850160051c83019410610c5d575b601f0160051c01915b828110610c5257505050565b818155600101610c46565b9092508290610c3d565b919091825167ffffffffffffffff811161026757610c8f81610c898454610bd9565b84610c13565b602080601f8311600114610ccb575081929394600092610cc0575b50508160011b916000199060031b1c1916179055565b015190503880610caa565b90601f19831695610ce185600052602060002090565b926000905b888210610d1e57505083600195969710610d05575b505050811b019055565b015160001960f88460031b161c19169055388080610cfb565b80600185968294968601518155019501930190610ce6565b60005b6104208110610d46575050565b606082820152602001610d39565b604051906000826020918254610d6981610bd9565b80845290600190818116908115610def5750600114610d93575b5050610d9192500383610288565b565b60008581527fc97bfaf2f8ee708c303a06d134f5ecd8389ae0432af62dc132a24118292866bb95935091905b818310610dd7575050610d9193508201013880610d83565b85548884018501529485019487945091830191610dbf565b915050610d9194925060ff191682840152151560051b8201013880610d83565b60405190600082601c5491610e2383610bd9565b80835292600190818116908115610ea95750600114610e4a575b50610d9192500383610288565b601c600090815291507f0e4562a10381dec21b205ed72637e6b1b523bdd0e4d4d50af5cd23dd4500a2115b848310610e8e5750610d91935050810160200138610e3d565b81935090816020925483858a01015201910190918592610e75565b905060209250610d9194915060ff191682840152151560051b82010138610e3d565b60405190600082601e5491610edf83610bd9565b80835292600190818116908115610ea95750600114610f055750610d9192500383610288565b601e600090815291507f50bb669a95c7b50b7e8a6f09454034b2b14cf2b85c730dca9a539ca82cb6e3505b848310610f495750610d91935050810160200138610e3d565b81935090816020925483858a01015201910190918592610f30565b9060405191826000825492610f7884610bd9565b908184526001948581169081600014610fe45750600114610fa1575050610d9192500383610288565b9093915060005260209081600020936000915b818310610fcc575050610d9193508201013880610d83565b85548884018501529485019487945091830191610fb4565b915050610d9194506020925060ff191682840152151560051b8201013880610d83565b90604051916110158361024a565b6000835b6021821061102657505050565b60016020819261103586610f64565b815201930191019091611019565b634e487b7160e01b600052603260045260246000fd5b1561106057565b60405162461bcd60e51b815260206004820152601760248201527f436f6d6d6f6e206e616d652069732072657175697265640000000000000000006044820152606490fd5b156110ac57565b60405162461bcd60e51b815260206004820152601860248201527f4f7267616e697a6174696f6e20697320726571756972656400000000000000006044820152606490fd5b156110f857565b60405162461bcd60e51b8152602060048201526014602482015273131bd8d85b1a5d1e481a5cc81c995c5d5a5c995960621b6044820152606490fd5b1561113b57565b60405162461bcd60e51b815260206004820152601160248201527014dd185d19481a5cc81c995c5d5a5c9959607a1b6044820152606490fd5b1561117b57565b60405162461bcd60e51b815260206004820152601360248201527210dbdd5b9d1c9e481a5cc81c995c5d5a5c9959606a1b6044820152606490fd5b156111bd57565b60405162461bcd60e51b815260206004820152601a60248201527f56616c696469747920706572696f6420697320696e76616c69640000000000006044820152606490fd5b1561120957565b60405162461bcd60e51b815260206004820152601e60248201527f436572746966696361746520697320616c7265616479206578706972656400006044820152606490fd5b1561125557565b606460405162461bcd60e51b815260206004820152602060248201527f5075626c6963206b657920616c676f726974686d2069732072657175697265646044820152fd5b156112a057565b60405162461bcd60e51b815260206004820152601a60248201527f5075626c6963206b65792073697a6520697320696e76616c69640000000000006044820152606490fd5b156112ec57565b60405162461bcd60e51b8152602060048201526016602482015275141d589b1a58c81ad95e481a5cc81c995c5d5a5c995960521b6044820152606490fd5b1561133157565b60405162461bcd60e51b815260206004820152600f60248201526e1a5cd0d8481a5cc81a5b9d985b1a59608a1b6044820152606490fd5b1561136f57565b60405162461bcd60e51b815260206004820152602260248201527f5375626a656374206b6579206964656e74696669657220697320726571756972604482015261195960f21b6064820152608490fd5b906001820180921161063257565b600201908160021161063257565b600301908160031161063257565b9190820180921161063257565b60409061140d9392815281602082015201906104fd565b90565b604051906020820182811067ffffffffffffffff8211176102675760405260008252565b604051906114418261026c565b60018252603360f81b6020830152565b6040519061145e8261026c565b601b82527f5348412d32353620776974682052534120456e6372797074696f6e00000000006020830152565b6023548110156114c5576021906023600052027fd57b2b5166478fd4318d2acc6cc2c704584312bdd8781b32d5d06abda57f42300190600090565b611043565b906023546801000000000000000081101561026757600192838201806023558210156114c557602360005260218092027fd57b2b5166478fd4318d2acc6cc2c704584312bdd8781b32d5d06abda57f4230016000915b83831061152f57505050509050565b8560208261153f83945186610c67565b01920192019190611520565b1561019457565b60001981146106325760010190565b60001981019190821161063257565b602003906020821161063257565b9190820391821161063257565b919061159a57610d9191610c67565b634e487b7160e01b600052600060045260246000fd5b6000929181546115bf81610bd9565b9260019180831690811561161857506001146115dc575b50505050565b90919293945060005260209081600020906000915b85831061160757505050500190388080806115d6565b8054858401529183019181016115f1565b60ff19168452505050811515909102019150388080806115d6565b602061164591604051928380926115b0565b602481520301902090565b90610d91600161166a9360405194859160208301906115b0565b600160fd1b815203601e19810185520183610288565b90611693602092828151948592016104da565b0190565b610d91906116c36020949360405195836116ba88955180928480890191016104da565b840101906115b0565b03601f198101845283610288565b90610d916021604051846116ef8296518092602080860191016104da565b8101600160fd1b6020820152036001810185520183610288565b604051906117168261026c565b60018252600160fd1b6020830152565b80518210156114c55760209160051b010190565b60206117539181604051938285809451938492016104da565b8101602481520301902090565b67ffffffffffffffff81116102675760051b60200190565b9061178282611760565b61178f6040519182610288565b82815280926117a0601f1991611760565b019060005b8281106117b157505050565b8060606020809385010152016117a5565b906117cf6117d591611c9f565b91611c9f565b60009281519160208101946117f586519486516020880196875192611e21565b8551810180911161063257905b8651835181018091116106325782116118585761181e90611552565b9082519087518103908082116106325761183e61184a926118529461157e565b90885190885192611e21565b8651906113e9565b90611802565b905061187192955061186c919493506113bf565b611778565b9160005b83518110156118b4576118af9061189461188f8585611d89565b611cc5565b61189e8287611726565b526118a98186611726565b50611552565b611875565b50505090565b8051156114c55760200190565b8051600110156114c55760210190565b9081518110156114c5570160200190565b90600091825b81518110156119655761190181836118d7565b5160f81c60308110158061195a575b611924575b5061191f90611552565b6118ee565b600a9491949182810292818404149015171561063257602f1990808281011161063257820101809111610632579261191f611915565b506039811115611910565b5050565b60405160209081810190611994838286516119878187858b016104da565b8101038084520182610288565b51902060405190828201826119b482600490637472756560e01b81520190565b03926119c8601f1994858101835282610288565b519020149283156119d95750505090565b909192506040516119fd816119f18682018095611680565b03848101835282610288565b51902091611a2e6040519182019282611a22856005906466616c736560d81b81520190565b03908101835282610288565b519020143880806118b4565b90604051916bffffffffffffffffffffffff199060601b16602083015260148252611a648261026c565b611a6c611b5d565b611a86611a81611a7c8551610bab565b6113cd565b611b89565b906030611a92836118ba565b536078611a9e836118c7565b53600093845b8151811015611b555780611af9611acd611af3611aed611ae7611adb611acd611b50988a6118d7565b516001600160f81b03191690565b60041c600f60f81b1690565b60f81c90565b60ff1690565b866118d7565b611b12611b08611a7c84610bab565b91891a91876118d7565b53611b36611acd611af3611aed600f60f81b611b2f84878a6118d7565b1660f81c90565b611b4a611b08611b4584610bab565b6113db565b53611552565b611aa4565b509193505050565b60405190611b6a8261026c565b601082526f181899199a1a9b1b9c1cb0b131b232b360811b6020830152565b90611b93826102aa565b611ba06040519182610288565b8281528092611bb1601f19916102aa565b0190602036910137565b60ff166030019060ff821161063257565b8015611c6857806000908282935b611c54575080611be984611b89565b93905b611bf65750505090565b611bff90611561565b9081600a918281049280840290848204148415171561063257810390811161063257611c43611c3360ff611c4c9316611bbb565b60f81b6001600160f81b03191690565b851a91866118d7565b539081611bec565b92611c60600a91611552565b930480611bda565b50604051611c758161026c565b60018152600360fc1b602082015290565b60405190611c938261026c565b60006020838281520152565b611ca7611c86565b50602081519160405192611cba8461026c565b835201602082015290565b805190611cea611cd4836102aa565b92611ce26040519485610288565b8084526102aa565b601f19906020848101918301368337808401519351919391925b81841015611d4d57506000199280611d27575b5050518251821691191617905290565b90809293500390811161063257611d40611d4591611d7a565b611561565b903880611d17565b92919384518152818101809111610632579381810180911161063257918381019081116106325792611d04565b601f8111610632576101000a90565b9190611d93611c86565b92611d9c611c86565b50805191611db860208301938451835190602085015192611e21565b908351602087015283518203828111610632578652835183518101809111610632578203611de95750506000915052565b8551928151840180941161063257611e05611e0e94825161157e565b905251906113e9565b9052565b60ff8111610632576001901b90565b91928193600084821115611e3d575b50505061140d92506113e9565b9193929160208211611ee0575060009381611eb6575b51841693929190611e6d90611e6884846113e9565b61157e565b84848751165b03611e8057505050505090565b909192939481811015611ea757611e9690611552565b948486511690809594939291611e73565b505090915061140d92506113e9565b9350611e6d611ed7611d40611ed2611ecd85611570565b610bc1565b611e12565b19949050611e53565b9290809296942092945b611ef4838361157e565b8611611f25578281208414611f1b57611f0f611f15916113bf565b95611552565b94611eea565b9450505050915090565b50929491505061140d9250388080611e3056fea264697066735822122012e73590ed80a5a52fd7663d9426ed0c6176e23d967ba788a0da71ac272cbef464736f6c63430008120033",
  "linkReferences": {},
  "deployedLinkReferences": {}
}